{
  "_format": "hh-sol-artifact-1",
  "contractName": "G4ALBank",
  "sourceName": "contracts/G4ALBank.sol",
  "abi": [
    {
      "inputs": [
        {
          "internalType": "address",
          "name": "_ggtToken",
          "type": "address"
        }
      ],
      "stateMutability": "nonpayable",
      "type": "constructor"
    },
    {
      "anonymous": false,
      "inputs": [
        {
          "indexed": false,
          "internalType": "uint256",
          "name": "amount",
          "type": "uint256"
        },
        {
          "indexed": false,
          "internalType": "uint256",
          "name": "when",
          "type": "uint256"
        },
        {
          "indexed": false,
          "internalType": "address",
          "name": "who",
          "type": "address"
        },
        {
          "indexed": false,
          "internalType": "address",
          "name": "game",
          "type": "address"
        }
      ],
      "name": "Deposit",
      "type": "event"
    },
    {
      "anonymous": false,
      "inputs": [
        {
          "indexed": true,
          "internalType": "bytes32",
          "name": "role",
          "type": "bytes32"
        },
        {
          "indexed": true,
          "internalType": "bytes32",
          "name": "previousAdminRole",
          "type": "bytes32"
        },
        {
          "indexed": true,
          "internalType": "bytes32",
          "name": "newAdminRole",
          "type": "bytes32"
        }
      ],
      "name": "RoleAdminChanged",
      "type": "event"
    },
    {
      "anonymous": false,
      "inputs": [
        {
          "indexed": true,
          "internalType": "bytes32",
          "name": "role",
          "type": "bytes32"
        },
        {
          "indexed": true,
          "internalType": "address",
          "name": "account",
          "type": "address"
        },
        {
          "indexed": true,
          "internalType": "address",
          "name": "sender",
          "type": "address"
        }
      ],
      "name": "RoleGranted",
      "type": "event"
    },
    {
      "anonymous": false,
      "inputs": [
        {
          "indexed": true,
          "internalType": "bytes32",
          "name": "role",
          "type": "bytes32"
        },
        {
          "indexed": true,
          "internalType": "address",
          "name": "account",
          "type": "address"
        },
        {
          "indexed": true,
          "internalType": "address",
          "name": "sender",
          "type": "address"
        }
      ],
      "name": "RoleRevoked",
      "type": "event"
    },
    {
      "anonymous": false,
      "inputs": [
        {
          "indexed": false,
          "internalType": "uint256",
          "name": "amount",
          "type": "uint256"
        },
        {
          "indexed": false,
          "internalType": "uint256",
          "name": "when",
          "type": "uint256"
        },
        {
          "indexed": false,
          "internalType": "address",
          "name": "who",
          "type": "address"
        },
        {
          "indexed": false,
          "internalType": "address",
          "name": "game",
          "type": "address"
        }
      ],
      "name": "Spent",
      "type": "event"
    },
    {
      "anonymous": false,
      "inputs": [
        {
          "indexed": false,
          "internalType": "uint256",
          "name": "amount",
          "type": "uint256"
        },
        {
          "indexed": false,
          "internalType": "uint256",
          "name": "when",
          "type": "uint256"
        },
        {
          "indexed": false,
          "internalType": "address",
          "name": "who",
          "type": "address"
        },
        {
          "indexed": false,
          "internalType": "address",
          "name": "game",
          "type": "address"
        }
      ],
      "name": "Withdrawal",
      "type": "event"
    },
    {
      "inputs": [],
      "name": "DEFAULT_ADMIN_ROLE",
      "outputs": [
        {
          "internalType": "bytes32",
          "name": "",
          "type": "bytes32"
        }
      ],
      "stateMutability": "view",
      "type": "function"
    },
    {
      "inputs": [],
      "name": "SPENDER_ROLE",
      "outputs": [
        {
          "internalType": "bytes32",
          "name": "",
          "type": "bytes32"
        }
      ],
      "stateMutability": "view",
      "type": "function"
    },
    {
      "inputs": [
        {
          "internalType": "address",
          "name": "_game",
          "type": "address"
        }
      ],
      "name": "addGame",
      "outputs": [],
      "stateMutability": "nonpayable",
      "type": "function"
    },
    {
      "inputs": [
        {
          "internalType": "address",
          "name": "",
          "type": "address"
        },
        {
          "internalType": "address",
          "name": "",
          "type": "address"
        }
      ],
      "name": "balances",
      "outputs": [
        {
          "internalType": "uint256",
          "name": "",
          "type": "uint256"
        }
      ],
      "stateMutability": "view",
      "type": "function"
    },
    {
      "inputs": [
        {
          "internalType": "uint256",
          "name": "_amount",
          "type": "uint256"
        },
        {
          "internalType": "address",
          "name": "_game",
          "type": "address"
        }
      ],
      "name": "deposit",
      "outputs": [],
      "stateMutability": "nonpayable",
      "type": "function"
    },
    {
      "inputs": [
        {
          "internalType": "address",
          "name": "",
          "type": "address"
        }
      ],
      "name": "games",
      "outputs": [
        {
          "internalType": "bool",
          "name": "",
          "type": "bool"
        }
      ],
      "stateMutability": "view",
      "type": "function"
    },
    {
      "inputs": [],
      "name": "getContractBalance",
      "outputs": [
        {
          "internalType": "uint256",
          "name": "",
          "type": "uint256"
        }
      ],
      "stateMutability": "view",
      "type": "function"
    },
    {
      "inputs": [
        {
          "internalType": "bytes32",
          "name": "role",
          "type": "bytes32"
        }
      ],
      "name": "getRoleAdmin",
      "outputs": [
        {
          "internalType": "bytes32",
          "name": "",
          "type": "bytes32"
        }
      ],
      "stateMutability": "view",
      "type": "function"
    },
    {
      "inputs": [
        {
          "internalType": "address",
          "name": "_user",
          "type": "address"
        },
        {
          "internalType": "address",
          "name": "_game",
          "type": "address"
        }
      ],
      "name": "getUserBalanceByGame",
      "outputs": [
        {
          "internalType": "uint256",
          "name": "",
          "type": "uint256"
        }
      ],
      "stateMutability": "view",
      "type": "function"
    },
    {
      "inputs": [],
      "name": "ggtToken",
      "outputs": [
        {
          "internalType": "address",
          "name": "",
          "type": "address"
        }
      ],
      "stateMutability": "view",
      "type": "function"
    },
    {
      "inputs": [
        {
          "internalType": "bytes32",
          "name": "role",
          "type": "bytes32"
        },
        {
          "internalType": "address",
          "name": "account",
          "type": "address"
        }
      ],
      "name": "grantRole",
      "outputs": [],
      "stateMutability": "nonpayable",
      "type": "function"
    },
    {
      "inputs": [
        {
          "internalType": "bytes32",
          "name": "role",
          "type": "bytes32"
        },
        {
          "internalType": "address",
          "name": "account",
          "type": "address"
        }
      ],
      "name": "hasRole",
      "outputs": [
        {
          "internalType": "bool",
          "name": "",
          "type": "bool"
        }
      ],
      "stateMutability": "view",
      "type": "function"
    },
    {
      "inputs": [
        {
          "internalType": "address",
          "name": "_game",
          "type": "address"
        }
      ],
      "name": "removeGame",
      "outputs": [],
      "stateMutability": "nonpayable",
      "type": "function"
    },
    {
      "inputs": [
        {
          "internalType": "bytes32",
          "name": "role",
          "type": "bytes32"
        },
        {
          "internalType": "address",
          "name": "account",
          "type": "address"
        }
      ],
      "name": "renounceRole",
      "outputs": [],
      "stateMutability": "nonpayable",
      "type": "function"
    },
    {
      "inputs": [
        {
          "internalType": "bytes32",
          "name": "role",
          "type": "bytes32"
        },
        {
          "internalType": "address",
          "name": "account",
          "type": "address"
        }
      ],
      "name": "revokeRole",
      "outputs": [],
      "stateMutability": "nonpayable",
      "type": "function"
    },
    {
      "inputs": [
        {
          "internalType": "uint256",
          "name": "_amount",
          "type": "uint256"
        },
        {
          "internalType": "address",
          "name": "_user",
          "type": "address"
        }
      ],
      "name": "spend",
      "outputs": [],
      "stateMutability": "nonpayable",
      "type": "function"
    },
    {
      "inputs": [
        {
          "internalType": "bytes4",
          "name": "interfaceId",
          "type": "bytes4"
        }
      ],
      "name": "supportsInterface",
      "outputs": [
        {
          "internalType": "bool",
          "name": "",
          "type": "bool"
        }
      ],
      "stateMutability": "view",
      "type": "function"
    },
    {
      "inputs": [
        {
          "internalType": "uint256",
          "name": "_amount",
          "type": "uint256"
        },
        {
          "internalType": "address",
          "name": "_game",
          "type": "address"
        }
      ],
      "name": "withdraw",
      "outputs": [],
      "stateMutability": "nonpayable",
      "type": "function"
    }
  ],
  "bytecode": "0x608060405234801561001057600080fd5b506040516112ba3803806112ba83398101604081905261002f91610128565b60018055600280546001600160a01b0319166001600160a01b038316179055610059600033610089565b6100837f7434c6f201a551bfd17336985361933e0c4935b520dac8a49d937b325f7d5c0a33610089565b50610158565b6000828152602081815260408083206001600160a01b038516845290915290205460ff16610124576000828152602081815260408083206001600160a01b03851684529091529020805460ff191660011790556100e33390565b6001600160a01b0316816001600160a01b0316837f2f8788117e7eff1d82e926ec794901d17c78024a50270940304540a733656f0d60405160405180910390a45b5050565b60006020828403121561013a57600080fd5b81516001600160a01b038116811461015157600080fd5b9392505050565b611153806101676000396000f3fe608060405234801561001057600080fd5b50600436106101155760003560e01c806372c16a24116100a2578063bce2466911610071578063bce246691461027a578063c1af25471461028d578063c23f001f146102b8578063d547741f146102e3578063d72d04db146102f657600080fd5b806372c16a241461021557806379131a191461023c57806391d148541461025f578063a217fddf1461027257600080fd5b8063248a9ca3116100e9578063248a9ca3146101b15780632f2ff15d146101d457806336568abe146101e75780636e553f65146101fa5780636f9fb98a1461020d57600080fd5b8062f714ce1461011a57806301ffc9a71461012f57806317587966146101575780631e9f59db1461019e575b600080fd5b61012d610128366004610ea5565b610309565b005b61014261013d366004610ed1565b610496565b60405190151581526020015b60405180910390f35b610190610165366004610efb565b6001600160a01b03918216600090815260046020908152604080832093909416825291909152205490565b60405190815260200161014e565b61012d6101ac366004610ea5565b6104cd565b6101906101bf366004610f25565b60009081526020819052604090206001015490565b61012d6101e2366004610ea5565b610683565b61012d6101f5366004610ea5565b6106a8565b61012d610208366004610ea5565b610722565b61019061098a565b6101907f7434c6f201a551bfd17336985361933e0c4935b520dac8a49d937b325f7d5c0a81565b61014261024a366004610f3e565b60036020526000908152604090205460ff1681565b61014261026d366004610ea5565b6109fc565b610190600081565b61012d610288366004610f3e565b610a25565b6002546102a0906001600160a01b031681565b6040516001600160a01b03909116815260200161014e565b6101906102c6366004610efb565b600460209081526000928352604080842090915290825290205481565b61012d6102f1366004610ea5565b610abf565b61012d610304366004610f3e565b610ae4565b610311610b14565b3360009081526004602090815260408083206001600160a01b038516845290915290205482111561037e5760405162461bcd60e51b8152602060048201526012602482015271496e73756666696369656e742066756e647360701b60448201526064015b60405180910390fd5b3360009081526004602090815260408083206001600160a01b03851684529091529020546103ac9083610b6d565b3360008181526004602081815260408084206001600160a01b0388811686529252928390209490945560025491516323b872dd60e01b81523091810191909152602481019290925260448201859052909116906323b872dd906064016020604051808303816000875af1158015610427573d6000803e3d6000fd5b505050506040513d601f19601f8201168201806040525081019061044b9190610f59565b507f725ba50016fa93058bbf9dbb34f8be093e7312a13657b7e400a6967ff7c64e4b824233846040516104819493929190610f7b565b60405180910390a161049260018055565b5050565b60006001600160e01b03198216637965db0b60e01b14806104c757506301ffc9a760e01b6001600160e01b03198316145b92915050565b7f7434c6f201a551bfd17336985361933e0c4935b520dac8a49d937b325f7d5c0a6104f781610b80565b6104ff610b14565b6001600160a01b03821660009081526004602090815260408083203384529091529020548311156105675760405162461bcd60e51b8152602060048201526012602482015271496e73756666696369656e742066756e647360701b6044820152606401610375565b6002546040516323b872dd60e01b8152306004820152336024820152604481018590526001600160a01b03909116906323b872dd906064016020604051808303816000875af11580156105be573d6000803e3d6000fd5b505050506040513d601f19601f820116820180604052508101906105e29190610f59565b506001600160a01b03821660009081526004602090815260408083203384529091529020546106119084610b6d565b6001600160a01b03831660009081526004602090815260408083203380855292529182902092909255517fe6205a6f86c974227c9de058169e808ba8bc20e12a89de5ac0a44ad29bb97bd09161066d9186914291879190610f7b565b60405180910390a161067e60018055565b505050565b60008281526020819052604090206001015461069e81610b80565b61067e8383610b8d565b6001600160a01b03811633146107185760405162461bcd60e51b815260206004820152602f60248201527f416363657373436f6e74726f6c3a2063616e206f6e6c792072656e6f756e636560448201526e103937b632b9903337b91039b2b63360891b6064820152608401610375565b6104928282610c11565b61072a610b14565b6107547f7434c6f201a551bfd17336985361933e0c4935b520dac8a49d937b325f7d5c0a826109fc565b6107965760405162461bcd60e51b815260206004820152601360248201527247616d6520646f65736e27742065786973747360681b6044820152606401610375565b60025460405163095ea7b360e01b8152306004820152602481018490526001600160a01b039091169063095ea7b3906044016020604051808303816000875af11580156107e7573d6000803e3d6000fd5b505050506040513d601f19601f8201168201806040525081019061080b9190610f59565b506002546040516323b872dd60e01b8152336004820152306024820152604481018490526001600160a01b03909116906323b872dd906064016020604051808303816000875af1158015610863573d6000803e3d6000fd5b505050506040513d601f19601f820116820180604052508101906108879190610f59565b5060025460405163095ea7b360e01b81526001600160a01b038381166004830152602482018590529091169063095ea7b3906044016020604051808303816000875af11580156108db573d6000803e3d6000fd5b505050506040513d601f19601f820116820180604052508101906108ff9190610f59565b503360009081526004602090815260408083206001600160a01b038516845290915290205461092e9083610c76565b3360008181526004602090815260408083206001600160a01b0387168452909152908190209290925590517fac57839e4a5af49d6dc5cf4ecd7400d50dc812f3ebb9d75bc488af088272a8089161048191859142918690610f7b565b6002546040516370a0823160e01b81523060048201526000916001600160a01b0316906370a0823190602401602060405180830381865afa1580156109d3573d6000803e3d6000fd5b505050506040513d601f19601f820116820180604052508101906109f79190610fa2565b905090565b6000918252602082815260408084206001600160a01b0393909316845291905290205460ff1690565b6000610a3081610b80565b6001600160a01b03821660009081526003602052604090205460ff161515600114610a9d5760405162461bcd60e51b815260206004820152601c60248201527f47616d65206e6f74206578697374696e6720696e206d617070696e67000000006044820152606401610375565b506001600160a01b03166000908152600360205260409020805460ff19169055565b600082815260208190526040902060010154610ada81610b80565b61067e8383610c11565b6000610aef81610b80565b506001600160a01b03166000908152600360205260409020805460ff19166001179055565b600260015403610b665760405162461bcd60e51b815260206004820152601f60248201527f5265656e7472616e637947756172643a207265656e7472616e742063616c6c006044820152606401610375565b6002600155565b6000610b798284610fd1565b9392505050565b610b8a8133610c82565b50565b610b9782826109fc565b610492576000828152602081815260408083206001600160a01b03851684529091529020805460ff19166001179055610bcd3390565b6001600160a01b0316816001600160a01b0316837f2f8788117e7eff1d82e926ec794901d17c78024a50270940304540a733656f0d60405160405180910390a45050565b610c1b82826109fc565b15610492576000828152602081815260408083206001600160a01b0385168085529252808320805460ff1916905551339285917ff6391f5c32d9c69d2a47ea670b442974b53935d1edc7fd64eb21e047a839171b9190a45050565b6000610b798284610fe4565b610c8c82826109fc565b61049257610c9981610cdb565b610ca4836020610ced565b604051602001610cb592919061101b565b60408051601f198184030181529082905262461bcd60e51b825261037591600401611090565b60606104c76001600160a01b03831660145b60606000610cfc8360026110c3565b610d07906002610fe4565b67ffffffffffffffff811115610d1f57610d1f6110da565b6040519080825280601f01601f191660200182016040528015610d49576020820181803683370190505b509050600360fc1b81600081518110610d6457610d646110f0565b60200101906001600160f81b031916908160001a905350600f60fb1b81600181518110610d9357610d936110f0565b60200101906001600160f81b031916908160001a9053506000610db78460026110c3565b610dc2906001610fe4565b90505b6001811115610e3a576f181899199a1a9b1b9c1cb0b131b232b360811b85600f1660108110610df657610df66110f0565b1a60f81b828281518110610e0c57610e0c6110f0565b60200101906001600160f81b031916908160001a90535060049490941c93610e3381611106565b9050610dc5565b508315610b795760405162461bcd60e51b815260206004820181905260248201527f537472696e67733a20686578206c656e67746820696e73756666696369656e746044820152606401610375565b80356001600160a01b0381168114610ea057600080fd5b919050565b60008060408385031215610eb857600080fd5b82359150610ec860208401610e89565b90509250929050565b600060208284031215610ee357600080fd5b81356001600160e01b031981168114610b7957600080fd5b60008060408385031215610f0e57600080fd5b610f1783610e89565b9150610ec860208401610e89565b600060208284031215610f3757600080fd5b5035919050565b600060208284031215610f5057600080fd5b610b7982610e89565b600060208284031215610f6b57600080fd5b81518015158114610b7957600080fd5b93845260208401929092526001600160a01b03908116604084015216606082015260800190565b600060208284031215610fb457600080fd5b5051919050565b634e487b7160e01b600052601160045260246000fd5b818103818111156104c7576104c7610fbb565b808201808211156104c7576104c7610fbb565b60005b83811015611012578181015183820152602001610ffa565b50506000910152565b7f416363657373436f6e74726f6c3a206163636f756e7420000000000000000000815260008351611053816017850160208801610ff7565b7001034b99036b4b9b9b4b733903937b6329607d1b6017918401918201528351611084816028840160208801610ff7565b01602801949350505050565b60208152600082518060208401526110af816040850160208701610ff7565b601f01601f19169190910160400192915050565b80820281158282048414176104c7576104c7610fbb565b634e487b7160e01b600052604160045260246000fd5b634e487b7160e01b600052603260045260246000fd5b60008161111557611115610fbb565b50600019019056fea2646970667358221220a5111389729f4e6465702abaa603fefbc8084a6c183d91ba4172ca371943ef8f64736f6c63430008110033",
  "linkReferences": {},
  "deployedLinkReferences": {}
}